:100000000C942A000C9447000C9447000C94470071
:100010000C9447000C9447000C9447000C94470044
:100020000C9447000C9447000C9447000C94470034
:100030000C9447000C9447000C9447000C94470024
:100040000C946B020C9447000C9447000C944700EE
:100050000C94470011241FBECFE5D8E0DEBFCDBF12
:1000600010E0A0E6B0E0E2EFF5E002C005900D92EE
:10007000A03CB107D9F710E0A0ECB0E001C01D92A0
:10008000AA3CB107E1F70E9438020C94F7020C94E5
:100090000000959A0000000082B3807C82BB089526
:1000A00017BA979A82B3887F82BB02C00E94490028
:1000B000C799FCCF8FEF87BB08951F93182F0E941D
:1000C000500018BB82B38B7782BB0E94490018BADC
:1000D0001F9108951F93182F0E94500018BB9798E6
:1000E000929A0E94490018BA1F9108958F929F9288
:1000F000AF92BF92CF92DF92EF92FF920F931F9336
:10010000CF93DF937C010894E108F10800E010E050
:10011000C1E0D0E081E090E041E0C42ED12C30E29B
:10012000832E3EE4932E20E3A22E25E7B22E4FC06D
:10013000F70120E030E08081803209F489012F5FEF
:100140003F4F319622313105B1F702C0019781F35B
:10015000842F0E946A00C4010197F1F7C031D105D4
:100160001CF480E090E007C080E090E001151105EC
:1001700011F481E090E0C017D10729F0882319F429
:1001800080E090E020C081E0C816D10439F488EA0C
:100190000E945D0092E0C92ED12C09C0C5010197D3
:1001A000F1F781E00E945D0081E0C82ED12C88EA41
:1001B0000E945D00C5010197F1F700E010E0C0E08A
:1001C000D0E081E090E021960894E11CF11CF70159
:1001D0004181442309F0BACFDF91CF911F910F9154
:1001E000FF90EF90DF90CF90BF90AF909F908F9057
:1001F0000895CF93DF93EC0103C021960E946A001B
:1002000088818823D1F7DF91CF910895E0E6F0E06F
:1002100081E481938F5F8F3AE1F781E690E00E945D
:10022000760008950F931F93CF93DF9380E49CE9AA
:100230000197F1F782E690E00E94F90000E21EE4E7
:10024000C8010197F1F788EA0E945D00C801019793
:10025000F1F7C0E0D0E000E61AEE8FEF0E946A00EE
:10026000C8010197F1F72196C031D105B1F700E33C
:1002700015E7C8010197F1F781E00E945D00C80110
:100280000197F1F7DF91CF911F910F910895EF92B0
:10029000FF920F931F938C0160E3E62E65E7F62E25
:1002A000C7010197F1F781E00E945D00C701019746
:1002B000F1F78DE690E00E94F90050E6E52E5AEE47
:1002C000F52EC7010197F1F781E00E945D00C7019B
:1002D0000197F1F78DE690E00E94F90088EA0E940C
:1002E0005D00C8010E94F90086EC0E945D0084EA6E
:1002F00096E028EC30E0F9013197F1F70197D9F752
:1003000081E00E945D0080E395E70197F1F71F917E
:100310000F91FF90EF90089581B3846A81BB80E3D1
:1003200095E70197F1F781E00E945D0080EA9FE088
:100330000197F1F788E30E945D0085E88A95F1F75F
:100340008CE00E945D0084EF91E028EC30E0F90140
:100350003197F1F70197D9F708950F931F9300E3B1
:1003600015E7C8010197F1F781E00E945D00C8011F
:100370000197F1F71F910F9108950F931F93DF934A
:10038000CF930F92CDB7DEB78C016983898190E05E
:1003900002C0959587954A95E2F7F801EE0FFF1F89
:1003A00080FD1AC0DF01AC53BF4F8D919C91119716
:1003B000019611969C938E93E054FF4F1182108208
:1003C0002817390704F5F801E853FF4F8081882387
:1003D000C1F481E0808318C0DF01A054BF4F8D912C
:1003E0009C911197019611969C938E93EC53FF4F1D
:1003F000118210822817390734F408531F4FF8016F
:1004000010821D921C9280E00F90CF91DF911F917E
:100410000F9108958CE00E945D0081E890E00E94B9
:10042000470180E990E00E94F90088EA0E945D009F
:1004300087E990E00E94F900329A3D9A3E9A339AF9
:10044000379A7894369A08958DE00E945D000E9454
:10045000AD0183EA90E00E94F90088EA0E945D0005
:100460008FEA90E00E94F90080E80E945D00089504
:10047000CF93DF93A09A85B391E0892785BBA29A99
:10048000A198A99A0E948C010E942402C1E0D0E0A8
:1004900063B380E090E041E024E630E00E94BD01DB
:1004A0008823B1F38091BE009091BF00892B39F071
:1004B0001092BF001092BE000E940A02E9CFD093B2
:1004C000BF00C093BE0016B817B817B816B816B854
:1004D0000E942402DDCF1F920F920FB60F921124BB
:1004E0000F931F932F933F934F935F936F937F933C
:1004F0008F939F93AF93BF93EF93FF93DF93CF932C
:1005000000D000D0CDB7DEB784EB0E945D0085B18E
:1005100090E08E010F5F1F4FB8014AE050E00E944B
:10052000B202C8010E94F9008BEB90E00E94F90032
:10053000369A0F900F900F900F90CF91DF91FF910F
:10054000EF91BF91AF919F918F917F916F915F914B
:100550004F913F912F911F910F910F900FBE0F90D0
:100560001F901895FB019F01E8944230C4F045327A
:10057000B4F44A3029F497FB1EF4909581959F4F6F
:10058000642F77270E94E302805D8A330CF0895D37
:100590008193CB010097A1F716F45DE2519310828D
:1005A000C9010C94D302DC01FC01672F7191772300
:1005B000E1F7329704C07C916D9370836291AE171E
:1005C000BF07C8F30895AA1BBB1B51E107C0AA1FB0
:1005D000BB1FA617B70710F0A61BB70B881F991FE4
:1005E0005A95A9F780959095BC01CD010895F8948E
:0205F000FFCF3B
:1005F20061004C6F6164696E67204F5300FFFFFF1B
:10060200FFFF414C45525421FFFFFFFFFF202020F6
:1006120000566965772042696768746E6573730076
:100622002D2045786974004272696768746E65733B
:10063200733A002D4272696768746E657373002D98
:100642004368616E6765204C45440020200001002C
:00000001FF
