:100000000C942A000C943F000C943F000C943F0089
:100010000C943F000C943F000C943F000C943F0064
:100020000C943F000C943F000C943F000C943F0054
:100030000C943F000C943F000C943F000C943F0044
:100040000C94CB010C943F000C943F000C943F00A7
:100050000C943F0011241FBECFE5D8E0DEBFCDBF1A
:1000600010E0A0E6B0E0E2EBF4E002C005900D92F3
:10007000A639B107D9F70E94BB010C9457020C9422
:100080000000959A0000000082B3807C82BB089536
:1000900017BA979A82B3887F82BB02C00E94410040
:1000A000C799FCCF8FEF87BB08951F93182F0E942D
:1000B000480018BB82B38B7782BB0E94410018BAFC
:1000C0001F9108951F93182F0E94480018BB9798FE
:1000D000929A0E94410018BA1F9108958F929F92A0
:1000E000AF92BF92CF92DF92EF92FF920F931F9346
:1000F000CF93DF937C010894E108F10800E010E061
:10010000C1E0D0E081E090E041E0C42ED12C30E2AB
:10011000832E3EE4932E20E3A22E25E7B22E4FC07D
:10012000F70120E030E08081803209F489012F5FFF
:100130003F4F319622313105B1F702C0019781F36B
:10014000842F0E946200C4010197F1F7C031D105EC
:100150001CF480E090E007C080E090E001151105FC
:1001600011F481E090E0C017D10729F0882319F439
:1001700080E090E020C081E0C816D10439F488EA1C
:100180000E94550092E0C92ED12C09C0C5010197EB
:10019000F1F781E00E94550081E0C82ED12C88EA59
:1001A0000E945500C5010197F1F700E010E0C0E0A2
:1001B000D0E081E090E021960894E11CF11CF70169
:1001C0004181442309F0BACFDF91CF911F910F9164
:1001D000FF90EF90DF90CF90BF90AF909F908F9067
:1001E0000895CF93DF93EC0103C021960E94620033
:1001F00088818823D1F7DF91CF910895E0E6F0E080
:1002000081E481938F5F8F3AE1F781E690E00E946D
:100210006E0008950F931F93CF93DF9380E49CE9C2
:100220000197F1F782E690E00E94F10000E21EE4FF
:10023000C8010197F1F788EA0E945500C8010197AB
:10024000F1F7C0E0D0E000E61AEE8FEF0E94620006
:10025000C8010197F1F72196C031D105B1F700E34C
:1002600015E7C8010197F1F781E00E945500C80128
:100270000197F1F7DF91CF911F910F910895EF92C0
:10028000FF920F931F937C0100E315E7C8010197CC
:10029000F1F781E00E945500C8010197F1F78DE662
:1002A00090E00E94F10000E61AEEC8010197F1F714
:1002B00081E00E945500C8010197F1F78DE690E0BA
:1002C0000E94F100C8010197F1F781E00E945500FA
:1002D000C8010197F1F78DE690E00E94F10088EAED
:1002E0000E945500C7010E94F10084EA96E028ECC4
:1002F00030E0F9013197F1F70197D9F781E00E94D9
:10030000550080E395E70197F1F71F910F91FF905A
:10031000EF90089581B3846A81BB80E395E70197EC
:10032000F1F781E00E94550080EA9FE00197F1F724
:1003300088E30E94550085E88A95F1F78CE00E94D9
:10034000550084EF91E028EC30E0F9013197F1F7A6
:100350000197D9F708950F931F9300E315E7C8019C
:100360000197F1F781E00E945500C8010197F1F76C
:100370001F910F9108950E948A010E94AB018EE7A0
:1003800090E00E94F10088E60E94550085E890E028
:100390000E94F100FFCF1F920F920FB60F9211240F
:1003A0000F931F932F933F934F935F936F937F937D
:1003B0008F939F93AF93BF93EF93FF93DF93CF936D
:1003C00000D000D0CDB7DEB784EB0E94550085B1D8
:1003D00090E08E010F5F1F4FB8014AE050E00E948D
:1003E0001202C8010E94F10082E990E00E94F1002F
:1003F000369A0F900F900F900F90CF91DF91FF9151
:10040000EF91BF91AF919F918F917F916F915F918C
:100410004F913F912F911F910F910F900FBE0F9011
:100420001F901895FB019F01E8944230C4F04532BB
:10043000B4F44A3029F497FB1EF4909581959F4FB0
:10044000642F77270E944302805D8A330CF0895D18
:100450008193CB010097A1F716F45DE251931082CE
:10046000C9010C943302DC01FC01672F71917723E1
:10047000E1F7329704C07C916D9370836291AE175F
:10048000BF07C8F30895AA1BBB1B51E107C0AA1FF1
:10049000BB1FA617B70710F0A61BB70B881F991F25
:1004A0005A95A9F780959095BC01CD010895F894CF
:0204B000FFCF7C
:1004B20061004C6F6164696E67204F5300FFFFFF5C
:1004C200FFFF414C45525421FFFFFFFFFF004D65E6
:1004D2006E753A20007C4272696768746E65737348
:0604E2007C002020000058
:00000001FF
